:0400000054EF00F0C9
:100008003482FACF21F0FBCF22F0E9CF23F0EACFF8
:1000180024F0E1CF25F0E2CF26F0D9CF27F0DACFD0
:1000280028F0F3CF29F0F4CF2AF0F6CF2BF0F7CF52
:100038002CF0F8CF2DF0F5CF2EF034C02FF035C0CE
:1000480030F036C031F037C032F09EA203D09E9215
:1000580077EC04F032C037F031C036F030C035F0FC
:100068002FC034F02EC0F5FF2DC0F8FF2CC0F7FFCD
:100078002BC0F6FF2AC0F4FF29C0F3FF28C0DAFF1F
:1000880027C0D9FF26C0E2FF25C0E1FF24C0EAFF50
:1000980023C0E9FF22C0FBFF21C0FAFF3492110000
:1000A800A4EF07F020EE08F00350D9260450DA2216
:1000B800DECF09F0DDCF0AF020EE0AF00350D92692
:1000C8000450DA22DECF0DF0DDCF0EF020EE1DF069
:1000D8000350D9260450DA22DF50116E20EE08F0C2
:1000E8000150D9260250DA22DECF12F0DDCF13F00C
:1000F80020EE0AF00150D9260250DA22DECF0FF0A6
:10010800DDCF10F020EE1DF00150D9260250DA2282
:10011800DF50146E20EE1EF00350D9260450DA2268
:10012800DF500B6E20EE1EF00150D9260250DA2265
:10013800DF500C6E0BC005F005460546C250051889
:10014800830B0518C26E0DC0D9FF0EC0DAFF11501F
:10015800DF121150FF0A056E09C0D9FF0AC0DAFF85
:100168000550DF161450FF0A056E0FC0D9FF10C0E6
:10017800DAFF0550DF161450FF0A056E12C0D9FFCA
:1001880013C0DAFF0550DF1600F000F000F000F0B1
:1001980000F000F000F000F000F000F000F000F0D7
:1001A80000F000F000F000F000F000F000F000F0C7
:1001B80012C0D9FF13C0DAFF1450DF120CC005F0CB
:1001C80005460546C2500518830B0518C26E00F097
:1001D80000F000F000F000F000F000F000F000F097
:1001E80000F000F000F000F000F000F000F000F087
:1001F80000F000F000F0C282C2B2FED71450FF0A2D
:10020800056E12C0D9FF13C0DAFF0550DF16115072
:10021800FF0A056E0DC0D9FF0EC0DAFF0550DF16C4
:10022800040E086E000E076EC350C4CF05F0066AB0
:1002380005C006F0056A0526000E06220550075E71
:100248000650085A0BC005F005460546C250051869
:10025800830B0518C26E1150FF0A056E0DC0D9FF39
:100268000EC0DAFF0550DF161150FF0A056E09C0EF
:10027800D9FF0AC0DAFF0550DF160FC0D9FF10C03A
:10028800DAFF1450DF121450FF0A056E12C0D9FFAE
:1002980013C0DAFF0550DF1600F000F000F000F0A0
:1002A80000F000F000F000F000F000F000F000F0C6
:1002B80000F000F000F000F000F000F000F000F0B6
:1002C80012C0D9FF13C0DAFF1450DF120CC005F0BA
:1002D80005460546C2500518830B0518C26E00F086
:1002E80000F000F000F000F000F000F000F000F086
:1002F80000F000F000F000F000F000F000F000F076
:1003080000F000F000F0C282C2B2FED71450FF0A1B
:10031800056E0FC0D9FF10C0DAFF0550DF16145064
:10032800FF0A056E12C0D9FF13C0DAFF0550DF16A9
:10033800C350C4CF05F0066A05C006F0056A052655
:10034800000E0622055007260650082207C001F0B5
:1003580008C002F01200600E0001A46F000EA56F25
:10036800000EA16F000EA26F000E9E6F060E9E6516
:1003780001D0F7D020EE04F0A451D926A551DA22F5
:10038800DECF9CF0DDCF9DF020EE1CF09C51D926ED
:100398009D51DA22DF50A36FA351D8B4DCD020EEF0
:1003A80002F0A451D926A551DA22DF50A06F20EE21
:1003B80001F0A451D926A551DA22DF509F6FA0A7DA
:1003C80044D0020E9F19D8A40BD020EE06F0A451F9
:1003D800D926A551DA22640EDE6E000EDD6E35D008
:1003E80020EE06F0A451D926A551DA22010EDBBE73
:1003F80008D0010EDB5003E1DE04D8A002D0010EC4
:1004080001D0020E9F6F20EE06F0A451D926A55107
:10041800DA22010EDBAE10D0EC0EDE5CFF0EDE58E9
:10042800D8B00AD020EE06F0A451D926A551DA2278
:10043800140EDE6E000EDD6E20EE06F0A451D926F5
:10044800A551DA22DE06000EDD5AA0A909D0A4C003
:10045800D9FFA5C0DAFFDF509F150009D8A49F8FE8
:10046800A4C0D9FFA5C0DAFF9FC0DFFFA0A130D08C
:1004780020EE03F0A451D926A551DA22A351DE18A3
:10048800D8B41DD0020EA319D8A419D020EE01F0BB
:10049800A451D926A551DA22DE04D8A408D020EE2A
:1004A80001F0A451D926A551DA22020E07D020EE78
:1004B80001F0A451D926A551DA22010EDF6E20EEF3
:1004C80003F0A451D926A551DA22A3C0DFFF43D0F7
:1004D800A0A52DD020EE01F0A451D926A551DA22ED
:1004E800020EDF6E020EA319D8A435D0A151A211B5
:1004F800D8B418D020EE18F09C51D9269D51DA2294
:1005080010EE04F0A151E126A251E22200EE18F00B
:10051800E650E926E550EA22DE50EE5CDE50EE5861
:10052800D8B019D0A4C0A1F0A5C0A2F014D0020E72
:10053800A319D8A408D020EE01F0A451D926A551BA
:10054800DA22010E07D020EE01F0A451D926A551D8
:10055800DA22020EDF6E080EA427000EA5239E2BBA
:1005680005D7A151A211D8B4120020EE01F0A15173
:10057800D926A251DA22010EDF6E120020EE04F015
:100588000A50D9260B50DA22DECF0CF0DDCF0DF061
:100598000AC0D9FF0BC0DAFFDECF0EF0DDCF0FF0B7
:1005A8000E1E0F1E0E4A0F2A0C500E24106E0D50F0
:1005B8000F20116E11AE04D0000E116E000E106ED9
:1005C80020EE18F00A50D9260B50DA2210C0DEFFB0
:1005D80011C0DDFFA1D020EE1AF00A50D9260B5029
:1005E800DA22DE06000EDD5ADE2815E1DE28D8A460
:1005F80012D020EE1CF00A50D9260B50DA22010E38
:10060800DF6E20EE1AF00A50D9260B50DA22020EBD
:10061800DE6E000EDD6E20EE04F00A50D9260B5077
:10062800DA220AC0E1FF0BC0E2FFDECFE6FFDECF31
:10063800E6FFDECFE6FFDECFE6FF7ED020EE12F04B
:100648000A50D9260B50DA221050DE5C1150DE58C1
:10065800D8B016D020EE1AF00A50D9260B50DA225C
:10066800DE06000EDD5ADE2815E1DE28D8A412D0F9
:1006780020EE1CF00A50D9260B50DA22020EDF6E4B
:1006880020EE1AF00A50D9260B50DA22020EDE6E3E
:10069800000EDD6E0AC001F00BC002F0000E046E01
:1006A800040E036E7AEC06F047D020EE14F00A50E0
:1006B800D9260B50DA22DE50105CDE501158D8B023
:1006C80016D020EE1AF00A50D9260B50DA22DE0690
:1006D800000EDD5ADE2815E1DE28D8A412D020EE5F
:1006E8001CF00A50D9260B50DA22010EDF6E20EEDC
:1006F8001AF00A50D9260B50DA22020EDE6E000ECE
:10070800DD6E0AC001F00BC002F0010E046E900EFF
:10071800036E7AEC06F010D020EE1CF00A50D926B1
:100728000B50DA22DF50000AD8B455D7010AD8B4E2
:1007380085D7030AD8B4B9D720EE04F00A50D926D1
:100748000B50DA22DE6ADE6ADE6ADD6A1200000118
:10075800A56F0001A551200D000EF324A66F010E10
:10076800F420A76F9FBF1FD09F5103E19E05D8A01B
:100778001AD020EE12F0A651D926A751DA229EC02F
:10078800DEFF9FC0DDFF9F359F31A46F9E31A36FB1
:1007980020EE14F0A651D926A751DA22A3C0DEFF15
:1007A800A4C0DDFF14D020EE12F0A651D926A7511F
:1007B800DA22F40EDE6E010EDD6E20EE14F0A65184
:1007C800D926A751DA22FA0EDE6E000EDD6E20EE73
:1007D80008F0A651D926A751DA2298C0DEFF99C0A1
:1007E800DDFF20EE0AF0A651D926A751DA229AC0D9
:1007F800DEFF9BC0DDFF20EE1DF0A651D926A751D4
:10080800DA229CC0A3F0010EA46FA32B02D0D890CB
:10081800A437A32FFCD70001A451DF6E20EE1EF0F1
:10082800A651D926A751DA229DC0DFFF20EE1CF081
:10083800A651D926A751DA22000EDF6E20EE1AF053
:10084800A651D926A751DA22340EDE6E000EDD6ECF
:10085800A1BF10D0A15103E1A005D8A00BD020EE74
:1008680010F0A651D926A751DA22A0C0DEFFA1C0F8
:10087800DDFF0AD020EE10F0A651D926A751DA22C2
:10088800200EDE6E000EDD6E20EE10F0A651D92689
:10089800A751DA2210EE0EF0A651E126A751E22266
:1008A800DECFE6FFDDCFE5FF20EE18F0A651D92612
:1008B800A751DA22000EDE6E000EDD6E20EE04F087
:1008C800A651D926A751DA22DE6ADE6ADE6ADD6A17
:1008D80020EE0CF0A651D926A751DA22000EDE6EC2
:1008E800000EDD6E12003350200D000EF3241F6E33
:1008F800010EF420206EC00E1A6E010E1B6E060E3D
:100908003318D8A404D0000E1C6E010E05D0200E9A
:100918001F241C6E000E20201D6E000E1E6E060E7B
:100928001E6401D08CD020EE1CF01F50D926205018
:10093800DA22DFBE6ED01FC001F020C002F01CC05A
:1009480003F01DC004F056EC00F001C018F002C01E
:1009580019F020EE0CF01F50D9262050DA2218503A
:10096800DE5CDE50800A176E1950800A1758D8B01E
:100978000AD020EE0CF01F50D9262050DA22DE2AA9
:10098800000EDD2209D020EE0CF01F50D926205091
:10099800DA22DE06000EDD5A20EE0CF01F50D926B2
:1009A8002050DA22DECF15F0DDCF16F020EE04F06D
:1009B8001F50D9262050DA221550DE261650DE2286
:1009C800000E16BEFF0EDE22DE2220EE0EF01F50B5
:1009D800D9262050DA22DE06000EDD5ADE2819E17B
:1009E800DE28D8A416D01FC00AF020C00BF0C2EC35
:1009F80002F020EE10F01F50D9262050DA2210EE17
:100A08000EF01F50E1262050E222DECFE6FFDDCFB8
:100A1800E5FF1FC01CF020C01DF01A501F1809E187
:100A28001B502018D8A405D0000E1F6E010E206E92
:100A380004D0200E1F26000E20221E2A70D7332A2B
:100A4800060E33641200000E336E1200930E00017E
:100A5800986F0F0E996F8A0E9A6F0F0E9B6F000E8C
:100A68009C6F0C0E9D6FFF0E9F6F9E69FF0EA16F0E
:100A7800A069FF0EA26F000EABEC03F0930E00010D
:100A8800986F0F0E996F8A0E9A6F0F0E9B6F010E5B
:100A98009C6F0A0E9D6FFF0E9F6F9E69FF0EA16FE0
:100AA800A069FF0EA26F010EABEC03F0930E0001DC
:100AB800986F0F0E996F8A0E9A6F0F0E9B6F020E2A
:100AC8009C6F080E9D6FFF0E9F6F9E69FF0EA16FB2
:100AD800A069FF0EA26F020EABEC03F0930E0001AB
:100AE800986F0F0E996F8A0E9A6F0F0E9B6F030EF9
:100AF8009C6F090E9D6FFF0E9F6F9E69FF0EA16F81
:100B0800A069FF0EA26F030EABEC03F0930E000179
:100B1800986F0F0E996F8A0E9A6F0F0E9B6F040EC7
:100B28009C6F0B0E9D6FFF0E9F6F9E69FF0EA16F4E
:100B3800A069FF0EA26F040EABEC03F0930E000148
:100B4800986F0F0E996F8A0E9A6F0F0E9B6F050E96
:100B58009C6F0D0E9D6FFF0E9F6F9E69FF0EA16F1C
:100B6800A069FF0EA26F050EABEC03F0920E000118
:100B7800986F0F0E996F890E9A6F0F0E9B6F000E6C
:100B88009C6F000E9D6FFF0E9F6F9E69FF0EA16FF9
:100B9800A069FF0EA26F060EABEC03F0120064EC26
:100BA80007F0E0EC07F0D7EC07F0A00E0001986F13
:100BB800860E996F010E9A6F000E9B6FC8EC07F0B6
:100BC800F3EC07F000016005D8A410D08BB20FD069
:100BD8008B82C8EC07F0E9EC07F0100E8DEC07F0FB
:100BE800000E8DEC07F0EFEC07F001D08B920001BE
:100BF8006805D8A410D08BB40FD08B84C8EC07F04C
:100C0800E9EC07F0100E8DEC07F0010E8DEC07F003
:100C1800EFEC07F001D08B9400017005D8A410D038
:100C28008BB00FD08B80C8EC07F0E9EC07F0100E02
:100C38008DEC07F0020E8DEC07F0EFEC07F001D019
:100C48008B9000017805D8A410D08DB20FD08D827A
:100C5800C8EC07F0E9EC07F0100E8DEC07F0030E76
:100C68008DEC07F0EFEC07F001D08D9200018005C4
:100C7800D8A410D08DB00FD08D80C8EC07F0E9EC67
:100C880007F0100E8DEC07F0040E8DEC07F0EFEC7A
:100C980007F001D08D9000018805D8A410D08DB43C
:100CA8000FD08D84C8EC07F0E9EC07F0100E8DEC3E
:100CB80007F0050E8DEC07F0EFEC07F001D08D94EE
:100CC80000019005D8A410D089B87AD78988C8ECD3
:100CD80007F0E9EC07F0100E8DEC07F0060E8DEC2E
:100CE80007F0EFEC07F06CD789986AD720EE16F07A
:100CF8000150D9260250DA22DFCF05F0010EDE2698
:100D0800DFCF06F0000EDD220350055C04500658C4
:100D1800D8A0120020EE16F00150D9260250DA228F
:100D2800000EDE6E000EDD6E030E056E01C0D9FFEB
:100D380002C0DAFFDECF06F0DECF07F0DECF08F024
:100D4800DECF09F0056601D007D009340932083230
:100D580007320632052EF6D701C0D9FF02C0DAFFE6
:100D68000650DE5E0750DE5A0850DE5A0950DE5A39
:100D7800030E056E20EE04F00150D9260250DA2247
:100D8800DECF06F0DECF07F0DECF08F0DECF09F0C9
:100D9800056601D007D00934093208320732063215
:100DA800052EF6D701C0D9FF02C0DAFF0650DE26AD
:100DB8000750DE220850DE220950DE221200000110
:100DC8009C6F00019C51080D600EF3249D6F000E6E
:100DD800F4209E6F9DC0D9FF9EC0DAFF820EDF6EA1
:100DE80020EE01F09D51D9269E51DA22020EDF6EC7
:100DF80020EE02F09D51D9269E51DA2299C0DFFFDC
:100E08009851200D000E9A6F010E9B6FF3509A2790
:100E1800F4509B2320EE04F09D51D9269E51DA22EE
:100E28009AC0DEFF9BC0DDFF20EE06F09D51D9265B
:100E38009E51DA22640EDE6E000EDD6E20EE03F0A7
:100E48009D51D9269E51DA22010EDF6E1200000E46
:100E58000001986F080E996F000EE3EC06F0010E82
:100E68000001986F080E996F010EE3EC06F0020E70
:100E78000001986F080E996F020EE3EC06F0030E5E
:100E88000001986F080E996F030EE3EC06F0040E4C
:100E98000001986F080E996F040EE3EC06F0050E3A
:100EA8000001986F080E996F050EE3EC06F0060E28
:100EB8000001986F080E996F060EE3EC06F0120019
:100EC800010E896E3F0E8A6E000E8B6E000E8C6EC0
:100ED800000E8D6E010E926E3F0E936E000E946E94
:100EE800000E956E000E966E010E0F01386F3F0EC4
:100EF800396F000E3A6F000E3B6F000E3C6FF28C9C
:100F0800F28EF290B00ED36E040ED26E000E9B6E6F
:100F1800120000019B6F9BC098F00001983B0F0ED8
:100F280098170F0E98179BC099F00F0E99179939BB
:100F3800F00B98119A6F9BC0C9FFC7A41200FDD788
:100F480001EE00F0E00EEE6AE806FDE100EE60F06A
:100F5800380EEE6AE806FDE1336A34903492000EEA
:100F6800F86E0001D3EF05F0000EC26E000EC16EE0
:100F7800000EC06EC08EC096C098C09AC050F80BC4
:100F88000109C06EC2801200280EC66E000EC56E22
:100F9800CB869F0EC86E800EC76E0F013A973A999E
:100FA800948694881200FCEC07F02AEC05F02BECF0
:100FB80007F0F9EC07F01200F90EBB6E000EBC6EDC
:100FC8009E929D821E0EBA6E1200C5809EA6FED706
:100FD800C5A01200FDD7C584C5A41200FDD7F6EC44
:100FE80007F01200AFEC01F01200FFEC07F012005E
:0A0FF800B8EC07F01200BA841200F2
:020000040020DA
:08000000FFFFFFFFFFFFFFFF00
:020000040030CA
:0E000000FF721F38FFA180FF0FC00FE00F40FE
:00000001FF
